{
  "contractName": "Bank",
  "abi": [
    {
      "anonymous": false,
      "inputs": [
        {
          "indexed": false,
          "internalType": "uint256",
          "name": "amount",
          "type": "uint256"
        },
        {
          "indexed": false,
          "internalType": "uint256",
          "name": "smartContractBalance",
          "type": "uint256"
        }
      ],
      "name": "SuccessfulPayment",
      "type": "event"
    },
    {
      "constant": false,
      "inputs": [
        {
          "internalType": "string",
          "name": "name",
          "type": "string"
        }
      ],
      "name": "storePayment",
      "outputs": [],
      "payable": true,
      "stateMutability": "payable",
      "type": "function"
    }
  ],
  "bytecode": "0x608060405234801561001057600080fd5b50610385806100206000396000f3fe60806040526004361061001e5760003560e01c80631c9ed02b14610023575b600080fd5b6100dc6004803603602081101561003957600080fd5b810190808035906020019064010000000081111561005657600080fd5b82018360208201111561006857600080fd5b8035906020019184600183028401116401000000008311171561008a57600080fd5b91908080601f016020809104026020016040519081016040528093929190818152602001838380828437600081840152601f19601f8201169050808301925050505050505091929192905050506100de565b005b600034905060003390506000808273ffffffffffffffffffffffffffffffffffffffff1673ffffffffffffffffffffffffffffffffffffffff16815260200190815260200160002060020160009054906101000a900460ff161561019057816000808373ffffffffffffffffffffffffffffffffffffffff1673ffffffffffffffffffffffffffffffffffffffff16815260200190815260200160002060000160008282540192505081905550610244565b610198610288565b604051806060016040528060008152602001858152602001600115158152509050806000808473ffffffffffffffffffffffffffffffffffffffff1673ffffffffffffffffffffffffffffffffffffffff16815260200190815260200160002060008201518160000155602082015181600101908051906020019061021e9291906102ab565b5060408201518160020160006101000a81548160ff021916908315150217905550905050505b7fb42c3c8de4e4e86bb9c8140b08aa9a1a06713d1d30c09a1268f48f8f98ca3d598247604051808381526020018281526020019250505060405180910390a1505050565b604051806060016040528060008152602001606081526020016000151581525090565b828054600181600116156101000203166002900490600052602060002090601f016020900481019282601f106102ec57805160ff191683800117855561031a565b8280016001018555821561031a579182015b828111156103195782518255916020019190600101906102fe565b5b509050610327919061032b565b5090565b61034d91905b80821115610349576000816000905550600101610331565b5090565b9056fea265627a7a72315820789966197fd0093851f581a1e922a3ad4b5226d9dddfa10058dcae71780d121b64736f6c63430005100032",
  "source": "pragma solidity >=0.4.21 <0.7.0;\r\n\r\ncontract Bank {\r\n  mapping (address => Account) accounts;\r\n\r\n  struct Account {\r\n    uint balance;\r\n    string messageHistory;\r\n    bool exists;\r\n  }\r\n\r\n  event SuccessfulPayment(uint amount, uint smartContractBalance);\r\n\r\n  function storePayment(string memory name) public payable {\r\n    uint amount = msg.value;\r\n    address payable user = msg.sender;\r\n\r\n    if (accounts[user].exists) {\r\n      accounts[user].balance += amount;\r\n    } else {\r\n      Account memory newAccount = Account(0, name, true);\r\n      accounts[user] = newAccount;\r\n    }\r\n\r\n    emit SuccessfulPayment(amount, address(this).balance);\r\n  }\r\n}",
  "sourcePath": "C:/Users/bguillen/Documents/sandbox/dapp-pocs/send-eth-poc/contracts/Bank.sol",
  "compiler": {
    "name": "solc",
    "version": "0.5.16+commit.9c3226ce.Emscripten.clang"
  },
  "schemaVersion": "3.2.3",
  "updatedAt": "2021-08-01T18:36:22.473Z",
  "networkType": "ethereum",
  "devdoc": {
    "methods": {}
  },
  "userdoc": {
    "methods": {}
  }
}