{
  "contractName": "Bank",
  "abi": [
    {
      "anonymous": false,
      "inputs": [
        {
          "indexed": false,
          "internalType": "uint256",
          "name": "amount",
          "type": "uint256"
        },
        {
          "indexed": false,
          "internalType": "uint256",
          "name": "smartContractBalance",
          "type": "uint256"
        },
        {
          "indexed": false,
          "internalType": "uint256",
          "name": "newAccountBalance",
          "type": "uint256"
        }
      ],
      "name": "SuccessfulDeposit",
      "type": "event"
    },
    {
      "anonymous": false,
      "inputs": [
        {
          "indexed": false,
          "internalType": "uint256",
          "name": "amount",
          "type": "uint256"
        },
        {
          "indexed": false,
          "internalType": "uint256",
          "name": "remainingBalance",
          "type": "uint256"
        }
      ],
      "name": "SuccessfulWithdraw",
      "type": "event"
    },
    {
      "constant": true,
      "inputs": [],
      "name": "getBalance",
      "outputs": [
        {
          "internalType": "uint256",
          "name": "balance",
          "type": "uint256"
        }
      ],
      "payable": false,
      "stateMutability": "view",
      "type": "function"
    },
    {
      "constant": false,
      "inputs": [
        {
          "internalType": "string",
          "name": "name",
          "type": "string"
        }
      ],
      "name": "storePayment",
      "outputs": [],
      "payable": true,
      "stateMutability": "payable",
      "type": "function"
    },
    {
      "constant": false,
      "inputs": [
        {
          "internalType": "uint256",
          "name": "amount",
          "type": "uint256"
        }
      ],
      "name": "withdraw",
      "outputs": [],
      "payable": false,
      "stateMutability": "nonpayable",
      "type": "function"
    }
  ],
  "bytecode": "0x608060405234801561001057600080fd5b506105b1806100206000396000f3fe6080604052600436106100345760003560e01c806312065fe0146100395780631c9ed02b146100645780632e1a7d4d1461011f575b600080fd5b34801561004557600080fd5b5061004e61015a565b6040518082815260200191505060405180910390f35b61011d6004803603602081101561007a57600080fd5b810190808035906020019064010000000081111561009757600080fd5b8201836020820111156100a957600080fd5b803590602001918460018302840111640100000000831117156100cb57600080fd5b91908080601f016020809104026020016040519081016040528093929190818152602001838380828437600081840152601f19601f8201169050808301925050505050505091929192905050506101a3565b005b34801561012b57600080fd5b506101586004803603602081101561014257600080fd5b8101908080359060200190929190505050610395565b005b60008060003373ffffffffffffffffffffffffffffffffffffffff1673ffffffffffffffffffffffffffffffffffffffff16815260200190815260200160002060000154905090565b600034905060003390506000808273ffffffffffffffffffffffffffffffffffffffff1673ffffffffffffffffffffffffffffffffffffffff16815260200190815260200160002060020160009054906101000a900460ff161561025557816000808373ffffffffffffffffffffffffffffffffffffffff1673ffffffffffffffffffffffffffffffffffffffff16815260200190815260200160002060000160008282540192505081905550610308565b61025d6104b4565b6040518060600160405280848152602001858152602001600115158152509050806000808473ffffffffffffffffffffffffffffffffffffffff1673ffffffffffffffffffffffffffffffffffffffff1681526020019081526020016000206000820151816000015560208201518160010190805190602001906102e29291906104d7565b5060408201518160020160006101000a81548160ff021916908315150217905550905050505b7f4a356d64c028f7ca8e98dfa9c804e72e1b9c74c214adda1fc4e68c43d8744c0782476000808573ffffffffffffffffffffffffffffffffffffffff1673ffffffffffffffffffffffffffffffffffffffff1681526020019081526020016000206000015460405180848152602001838152602001828152602001935050505060405180910390a1505050565b60003390508073ffffffffffffffffffffffffffffffffffffffff166108fc839081150290604051600060405180830381858888f193505050501580156103e0573d6000803e3d6000fd5b50816000808373ffffffffffffffffffffffffffffffffffffffff1673ffffffffffffffffffffffffffffffffffffffff168152602001908152602001600020600001600082825403925050819055507f87d403c827bfbbc4c16caf5411239cf6e997f81378ff2851af606141e8aeb4d3826000808473ffffffffffffffffffffffffffffffffffffffff1673ffffffffffffffffffffffffffffffffffffffff16815260200190815260200160002060000154604051808381526020018281526020019250505060405180910390a15050565b604051806060016040528060008152602001606081526020016000151581525090565b828054600181600116156101000203166002900490600052602060002090601f016020900481019282601f1061051857805160ff1916838001178555610546565b82800160010185558215610546579182015b8281111561054557825182559160200191906001019061052a565b5b5090506105539190610557565b5090565b61057991905b8082111561057557600081600090555060010161055d565b5090565b9056fea265627a7a723158203ad8314550cd5bde85e57ab12c6fda924079d0d947f080ff36989d597d44ef7b64736f6c63430005100032",
  "source": "pragma solidity >=0.4.21 <0.7.0;\r\n\r\ncontract Bank {\r\n  mapping (address => Account) accounts;\r\n\r\n  struct Account {\r\n    uint balance;\r\n    string messageHistory;\r\n    bool exists;\r\n  }\r\n\r\n  event SuccessfulDeposit(uint amount, uint smartContractBalance, uint newAccountBalance);\r\n  event SuccessfulWithdraw(uint amount, uint remainingBalance);\r\n\r\n  function getBalance() public view returns (uint balance) {\r\n    balance = accounts[msg.sender].balance;\r\n  }\r\n\r\n  function storePayment(string memory name) public payable {\r\n    uint amount = msg.value;\r\n    address payable user = msg.sender;\r\n\r\n    if (accounts[user].exists) {\r\n      accounts[user].balance += amount;\r\n    } else {\r\n      Account memory newAccount = Account(amount, name, true);\r\n      accounts[user] = newAccount;\r\n    }\r\n\r\n    /**\r\n     * When to use an event versus return?\r\n     */\r\n    emit SuccessfulDeposit(amount, address(this).balance, accounts[user].balance);\r\n  }\r\n\r\n  function withdraw(uint amount) public {\r\n    address payable user = msg.sender;\r\n    \r\n    // add some require statements to make this safe\r\n\r\n    // send\r\n    user.transfer(amount);\r\n\r\n    // deduct from balance\r\n    accounts[user].balance -= amount;\r\n\r\n    // emit event\r\n    emit SuccessfulWithdraw(amount, accounts[user].balance);\r\n  }\r\n}",
  "sourcePath": "C:/Users/bguillen/Documents/sandbox/dapp-pocs/send-eth-poc/contracts/Bank.sol",
  "compiler": {
    "name": "solc",
    "version": "0.5.16+commit.9c3226ce.Emscripten.clang"
  },
  "schemaVersion": "3.2.3",
  "updatedAt": "2021-08-02T14:02:49.017Z",
  "networkType": "ethereum",
  "devdoc": {
    "methods": {}
  },
  "userdoc": {
    "methods": {}
  }
}