{
  "contractName": "Bank",
  "abi": [
    {
      "anonymous": false,
      "inputs": [
        {
          "indexed": false,
          "internalType": "uint256",
          "name": "amount",
          "type": "uint256"
        },
        {
          "indexed": false,
          "internalType": "uint256",
          "name": "smartContractBalance",
          "type": "uint256"
        }
      ],
      "name": "SuccessfulDeposit",
      "type": "event"
    },
    {
      "anonymous": false,
      "inputs": [
        {
          "indexed": false,
          "internalType": "uint256",
          "name": "amount",
          "type": "uint256"
        },
        {
          "indexed": false,
          "internalType": "uint256",
          "name": "remainingBalance",
          "type": "uint256"
        }
      ],
      "name": "SuccessfulWithdraw",
      "type": "event"
    },
    {
      "constant": false,
      "inputs": [
        {
          "internalType": "string",
          "name": "name",
          "type": "string"
        }
      ],
      "name": "storePayment",
      "outputs": [],
      "payable": true,
      "stateMutability": "payable",
      "type": "function"
    },
    {
      "constant": false,
      "inputs": [
        {
          "internalType": "uint256",
          "name": "amount",
          "type": "uint256"
        }
      ],
      "name": "withdraw",
      "outputs": [],
      "payable": false,
      "stateMutability": "nonpayable",
      "type": "function"
    }
  ],
  "bytecode": "0x608060405234801561001057600080fd5b506104e9806100206000396000f3fe6080604052600436106100295760003560e01c80631c9ed02b1461002e5780632e1a7d4d146100e9575b600080fd5b6100e76004803603602081101561004457600080fd5b810190808035906020019064010000000081111561006157600080fd5b82018360208201111561007357600080fd5b8035906020019184600183028401116401000000008311171561009557600080fd5b91908080601f016020809104026020016040519081016040528093929190818152602001838380828437600081840152601f19601f820116905080830192505050505050509192919290505050610124565b005b3480156100f557600080fd5b506101226004803603602081101561010c57600080fd5b81019080803590602001909291905050506102cd565b005b600034905060003390506000808273ffffffffffffffffffffffffffffffffffffffff1673ffffffffffffffffffffffffffffffffffffffff16815260200190815260200160002060020160009054906101000a900460ff16156101d657816000808373ffffffffffffffffffffffffffffffffffffffff1673ffffffffffffffffffffffffffffffffffffffff16815260200190815260200160002060000160008282540192505081905550610289565b6101de6103ec565b6040518060600160405280848152602001858152602001600115158152509050806000808473ffffffffffffffffffffffffffffffffffffffff1673ffffffffffffffffffffffffffffffffffffffff16815260200190815260200160002060008201518160000155602082015181600101908051906020019061026392919061040f565b5060408201518160020160006101000a81548160ff021916908315150217905550905050505b7f4230e89da735c392fbe56bbb29b0b0f4df50e7001cd560e52ffdae3662ad8b6e8247604051808381526020018281526020019250505060405180910390a1505050565b60003390508073ffffffffffffffffffffffffffffffffffffffff166108fc839081150290604051600060405180830381858888f19350505050158015610318573d6000803e3d6000fd5b50816000808373ffffffffffffffffffffffffffffffffffffffff1673ffffffffffffffffffffffffffffffffffffffff168152602001908152602001600020600001600082825403925050819055507f87d403c827bfbbc4c16caf5411239cf6e997f81378ff2851af606141e8aeb4d3826000808473ffffffffffffffffffffffffffffffffffffffff1673ffffffffffffffffffffffffffffffffffffffff16815260200190815260200160002060000154604051808381526020018281526020019250505060405180910390a15050565b604051806060016040528060008152602001606081526020016000151581525090565b828054600181600116156101000203166002900490600052602060002090601f016020900481019282601f1061045057805160ff191683800117855561047e565b8280016001018555821561047e579182015b8281111561047d578251825591602001919060010190610462565b5b50905061048b919061048f565b5090565b6104b191905b808211156104ad576000816000905550600101610495565b5090565b9056fea265627a7a7231582010e78d5cee0474de13f0ef80d9c25b6f707846cd2c1bc93bc80bdcc3e44f355d64736f6c63430005100032",
  "source": "pragma solidity >=0.4.21 <0.7.0;\r\n\r\ncontract Bank {\r\n  mapping (address => Account) accounts;\r\n\r\n  struct Account {\r\n    uint balance;\r\n    string messageHistory;\r\n    bool exists;\r\n  }\r\n\r\n  event SuccessfulDeposit(uint amount, uint smartContractBalance);\r\n  event SuccessfulWithdraw(uint amount, uint remainingBalance);\r\n\r\n  function storePayment(string memory name) public payable {\r\n    uint amount = msg.value;\r\n    address payable user = msg.sender;\r\n\r\n    if (accounts[user].exists) {\r\n      accounts[user].balance += amount;\r\n    } else {\r\n      Account memory newAccount = Account(amount, name, true);\r\n      accounts[user] = newAccount;\r\n    }\r\n\r\n    /**\r\n     * When to use an event versus return?\r\n     */\r\n    emit SuccessfulDeposit(amount, address(this).balance);\r\n  }\r\n\r\n  function withdraw(uint amount) public {\r\n    address payable user = msg.sender;\r\n    \r\n    // add some require statements to make this safe\r\n\r\n    // send\r\n    user.transfer(amount);\r\n\r\n    // deduct from balance\r\n    accounts[user].balance -= amount;\r\n\r\n    // emit event\r\n    emit SuccessfulWithdraw(amount, accounts[user].balance);\r\n  }\r\n}",
  "sourcePath": "C:/Users/bguillen/Documents/sandbox/dapp-pocs/send-eth-poc/contracts/Bank.sol",
  "compiler": {
    "name": "solc",
    "version": "0.5.16+commit.9c3226ce.Emscripten.clang"
  },
  "schemaVersion": "3.2.3",
  "updatedAt": "2021-08-02T13:51:49.685Z",
  "devdoc": {
    "methods": {}
  },
  "userdoc": {
    "methods": {}
  }
}